{
  "_format": "hh-sol-artifact-1",
  "contractName": "TestToken",
  "sourceName": "contracts/TestToken.sol",
  "abi": [
    {
      "inputs": [
        {
          "internalType": "string",
          "name": "_name",
          "type": "string"
        },
        {
          "internalType": "string",
          "name": "_symbol",
          "type": "string"
        },
        {
          "internalType": "uint8",
          "name": "_decimals",
          "type": "uint8"
        },
        {
          "internalType": "address",
          "name": "_priceFeed",
          "type": "address"
        }
      ],
      "stateMutability": "nonpayable",
      "type": "constructor"
    },
    {
      "anonymous": false,
      "inputs": [
        {
          "indexed": true,
          "internalType": "address",
          "name": "owner",
          "type": "address"
        },
        {
          "indexed": true,
          "internalType": "address",
          "name": "spender",
          "type": "address"
        },
        {
          "indexed": false,
          "internalType": "uint256",
          "name": "value",
          "type": "uint256"
        }
      ],
      "name": "Approval",
      "type": "event"
    },
    {
      "anonymous": false,
      "inputs": [
        {
          "indexed": true,
          "internalType": "address",
          "name": "previousOwner",
          "type": "address"
        },
        {
          "indexed": true,
          "internalType": "address",
          "name": "newOwner",
          "type": "address"
        }
      ],
      "name": "OwnershipTransferred",
      "type": "event"
    },
    {
      "anonymous": false,
      "inputs": [
        {
          "indexed": true,
          "internalType": "address",
          "name": "from",
          "type": "address"
        },
        {
          "indexed": true,
          "internalType": "address",
          "name": "to",
          "type": "address"
        },
        {
          "indexed": false,
          "internalType": "uint256",
          "name": "value",
          "type": "uint256"
        }
      ],
      "name": "Transfer",
      "type": "event"
    },
    {
      "inputs": [],
      "name": "MAX_PRICE_AGE",
      "outputs": [
        {
          "internalType": "uint256",
          "name": "",
          "type": "uint256"
        }
      ],
      "stateMutability": "view",
      "type": "function"
    },
    {
      "inputs": [
        {
          "internalType": "address",
          "name": "",
          "type": "address"
        },
        {
          "internalType": "address",
          "name": "",
          "type": "address"
        }
      ],
      "name": "allowance",
      "outputs": [
        {
          "internalType": "uint256",
          "name": "",
          "type": "uint256"
        }
      ],
      "stateMutability": "view",
      "type": "function"
    },
    {
      "inputs": [
        {
          "internalType": "address",
          "name": "spender",
          "type": "address"
        },
        {
          "internalType": "uint256",
          "name": "amount",
          "type": "uint256"
        }
      ],
      "name": "approve",
      "outputs": [
        {
          "internalType": "bool",
          "name": "",
          "type": "bool"
        }
      ],
      "stateMutability": "nonpayable",
      "type": "function"
    },
    {
      "inputs": [
        {
          "internalType": "address",
          "name": "",
          "type": "address"
        }
      ],
      "name": "balanceOf",
      "outputs": [
        {
          "internalType": "uint256",
          "name": "",
          "type": "uint256"
        }
      ],
      "stateMutability": "view",
      "type": "function"
    },
    {
      "inputs": [],
      "name": "decimals",
      "outputs": [
        {
          "internalType": "uint8",
          "name": "",
          "type": "uint8"
        }
      ],
      "stateMutability": "view",
      "type": "function"
    },
    {
      "inputs": [],
      "name": "deposit",
      "outputs": [
        {
          "internalType": "bool",
          "name": "",
          "type": "bool"
        }
      ],
      "stateMutability": "payable",
      "type": "function"
    },
    {
      "inputs": [],
      "name": "emergencyWithdraw",
      "outputs": [],
      "stateMutability": "nonpayable",
      "type": "function"
    },
    {
      "inputs": [],
      "name": "getLatestPrice",
      "outputs": [
        {
          "internalType": "int256",
          "name": "price",
          "type": "int256"
        },
        {
          "internalType": "uint8",
          "name": "priceDecimals",
          "type": "uint8"
        }
      ],
      "stateMutability": "view",
      "type": "function"
    },
    {
      "inputs": [],
      "name": "name",
      "outputs": [
        {
          "internalType": "string",
          "name": "",
          "type": "string"
        }
      ],
      "stateMutability": "view",
      "type": "function"
    },
    {
      "inputs": [],
      "name": "owner",
      "outputs": [
        {
          "internalType": "address",
          "name": "",
          "type": "address"
        }
      ],
      "stateMutability": "view",
      "type": "function"
    },
    {
      "inputs": [],
      "name": "renounceOwnership",
      "outputs": [],
      "stateMutability": "nonpayable",
      "type": "function"
    },
    {
      "inputs": [],
      "name": "symbol",
      "outputs": [
        {
          "internalType": "string",
          "name": "",
          "type": "string"
        }
      ],
      "stateMutability": "view",
      "type": "function"
    },
    {
      "inputs": [],
      "name": "totalSupply",
      "outputs": [
        {
          "internalType": "uint256",
          "name": "",
          "type": "uint256"
        }
      ],
      "stateMutability": "view",
      "type": "function"
    },
    {
      "inputs": [
        {
          "internalType": "address",
          "name": "to",
          "type": "address"
        },
        {
          "internalType": "uint256",
          "name": "amount",
          "type": "uint256"
        }
      ],
      "name": "transfer",
      "outputs": [
        {
          "internalType": "bool",
          "name": "",
          "type": "bool"
        }
      ],
      "stateMutability": "nonpayable",
      "type": "function"
    },
    {
      "inputs": [
        {
          "internalType": "address",
          "name": "from",
          "type": "address"
        },
        {
          "internalType": "address",
          "name": "to",
          "type": "address"
        },
        {
          "internalType": "uint256",
          "name": "amount",
          "type": "uint256"
        }
      ],
      "name": "transferFrom",
      "outputs": [
        {
          "internalType": "bool",
          "name": "",
          "type": "bool"
        }
      ],
      "stateMutability": "nonpayable",
      "type": "function"
    },
    {
      "inputs": [
        {
          "internalType": "address",
          "name": "newOwner",
          "type": "address"
        }
      ],
      "name": "transferOwnership",
      "outputs": [],
      "stateMutability": "nonpayable",
      "type": "function"
    },
    {
      "inputs": [],
      "name": "unsafePrice",
      "outputs": [
        {
          "internalType": "int256",
          "name": "",
          "type": "int256"
        }
      ],
      "stateMutability": "view",
      "type": "function"
    },
    {
      "inputs": [
        {
          "internalType": "uint256",
          "name": "amount",
          "type": "uint256"
        }
      ],
      "name": "withdraw",
      "outputs": [
        {
          "internalType": "bool",
          "name": "",
          "type": "bool"
        }
      ],
      "stateMutability": "nonpayable",
      "type": "function"
    },
    {
      "stateMutability": "payable",
      "type": "receive"
    }
  ],
  "bytecode": "0x60806040523480156200001157600080fd5b506040516200292d3803806200292d833981810160405281019062000037919062000393565b83600090816200004891906200068e565b5082600190816200005a91906200068e565b5081600260006101000a81548160ff021916908360ff16021790555033600460006101000a81548173ffffffffffffffffffffffffffffffffffffffff021916908373ffffffffffffffffffffffffffffffffffffffff16021790555080600560006101000a81548173ffffffffffffffffffffffffffffffffffffffff021916908373ffffffffffffffffffffffffffffffffffffffff1602179055503373ffffffffffffffffffffffffffffffffffffffff16600073ffffffffffffffffffffffffffffffffffffffff167f8be0079c531659141344cd1fd0a4f28419497f9722a3daafe3b4186f6b6457e060405160405180910390a35050505062000775565b6000604051905090565b600080fd5b600080fd5b600080fd5b600080fd5b6000601f19601f8301169050919050565b7f4e487b7100000000000000000000000000000000000000000000000000000000600052604160045260246000fd5b620001c6826200017b565b810181811067ffffffffffffffff82111715620001e857620001e76200018c565b5b80604052505050565b6000620001fd6200015d565b90506200020b8282620001bb565b919050565b600067ffffffffffffffff8211156200022e576200022d6200018c565b5b62000239826200017b565b9050602081019050919050565b60005b838110156200026657808201518184015260208101905062000249565b60008484015250505050565b600062000289620002838462000210565b620001f1565b905082815260208101848484011115620002a857620002a762000176565b5b620002b584828562000246565b509392505050565b600082601f830112620002d557620002d462000171565b5b8151620002e784826020860162000272565b91505092915050565b600060ff82169050919050565b6200030881620002f0565b81146200031457600080fd5b50565b6000815190506200032881620002fd565b92915050565b600073ffffffffffffffffffffffffffffffffffffffff82169050919050565b60006200035b826200032e565b9050919050565b6200036d816200034e565b81146200037957600080fd5b50565b6000815190506200038d8162000362565b92915050565b60008060008060808587031215620003b057620003af62000167565b5b600085015167ffffffffffffffff811115620003d157620003d06200016c565b5b620003df87828801620002bd565b945050602085015167ffffffffffffffff8111156200040357620004026200016c565b5b6200041187828801620002bd565b9350506040620004248782880162000317565b925050606062000437878288016200037c565b91505092959194509250565b600081519050919050565b7f4e487b7100000000000000000000000000000000000000000000000000000000600052602260045260246000fd5b600060028204905060018216806200049657607f821691505b602082108103620004ac57620004ab6200044e565b5b50919050565b60008190508160005260206000209050919050565b60006020601f8301049050919050565b600082821b905092915050565b600060088302620005167fffffffffffffffffffffffffffffffffffffffffffffffffffffffffffffffff82620004d7565b620005228683620004d7565b95508019841693508086168417925050509392505050565b6000819050919050565b6000819050919050565b60006200056f6200056962000563846200053a565b62000544565b6200053a565b9050919050565b6000819050919050565b6200058b836200054e565b620005a36200059a8262000576565b848454620004e4565b825550505050565b600090565b620005ba620005ab565b620005c781848462000580565b505050565b5b81811015620005ef57620005e3600082620005b0565b600181019050620005cd565b5050565b601f8211156200063e576200060881620004b2565b6200061384620004c7565b8101602085101562000623578190505b6200063b6200063285620004c7565b830182620005cc565b50505b505050565b600082821c905092915050565b6000620006636000198460080262000643565b1980831691505092915050565b60006200067e838362000650565b9150826002028217905092915050565b620006998262000443565b67ffffffffffffffff811115620006b557620006b46200018c565b5b620006c182546200047d565b620006ce828285620005f3565b600060209050601f831160018114620007065760008415620006f1578287015190505b620006fd858262000670565b8655506200076d565b601f1984166200071686620004b2565b60005b82811015620007405784890151825560018201915060208501945060208101905062000719565b868310156200076057848901516200075c601f89168262000650565b8355505b6001600288020188555050505b505050505050565b6121a880620007856000396000f3fe60806040526004361061010d5760003560e01c80638da5cb5b11610095578063a9059cbb11610064578063a9059cbb1461037d578063d0e30db0146103ba578063db2e21bc146103d8578063dd62ed3e146103ef578063f2fde38b1461042c57610114565b80638da5cb5b146102d05780638e15f473146102fb57806395d89b41146103275780639d7f7e861461035257610114565b806323b872dd116100dc57806323b872dd146101d75780632e1a7d4d14610214578063313ce5671461025157806370a082311461027c578063715018a6146102b957610114565b806306fdde0314610119578063095ea7b31461014457806318160ddd146101815780631e76c591146101ac57610114565b3661011457005b600080fd5b34801561012557600080fd5b5061012e610455565b60405161013b9190611754565b60405180910390f35b34801561015057600080fd5b5061016b6004803603810190610166919061180f565b6104e3565b604051610178919061186a565b60405180910390f35b34801561018d57600080fd5b506101966105d5565b6040516101a39190611894565b60405180910390f35b3480156101b857600080fd5b506101c16105db565b6040516101ce91906118c8565b60405180910390f35b3480156101e357600080fd5b506101fe60048036038101906101f991906118e3565b61067c565b60405161020b919061186a565b60405180910390f35b34801561022057600080fd5b5061023b60048036038101906102369190611936565b610a4b565b604051610248919061186a565b60405180910390f35b34801561025d57600080fd5b50610266610bf4565b604051610273919061197f565b60405180910390f35b34801561028857600080fd5b506102a3600480360381019061029e919061199a565b610c07565b6040516102b09190611894565b60405180910390f35b3480156102c557600080fd5b506102ce610c1f565b005b3480156102dc57600080fd5b506102e5610d76565b6040516102f291906119d6565b60405180910390f35b34801561030757600080fd5b50610310610d9c565b60405161031e9291906119f1565b60405180910390f35b34801561033357600080fd5b5061033c61100e565b6040516103499190611754565b60405180910390f35b34801561035e57600080fd5b5061036761109c565b6040516103749190611894565b60405180910390f35b34801561038957600080fd5b506103a4600480360381019061039f919061180f565b6110a2565b6040516103b1919061186a565b60405180910390f35b6103c26112af565b6040516103cf919061186a565b60405180910390f35b3480156103e457600080fd5b506103ed6113cf565b005b3480156103fb57600080fd5b5061041660048036038101906104119190611a1a565b6114da565b6040516104239190611894565b60405180910390f35b34801561043857600080fd5b50610453600480360381019061044e919061199a565b6114ff565b005b6000805461046290611a89565b80601f016020809104026020016040519081016040528092919081815260200182805461048e90611a89565b80156104db5780601f106104b0576101008083540402835291602001916104db565b820191906000526020600020905b8154815290600101906020018083116104be57829003601f168201915b505050505081565b600081600760003373ffffffffffffffffffffffffffffffffffffffff1673ffffffffffffffffffffffffffffffffffffffff16815260200190815260200160002060008573ffffffffffffffffffffffffffffffffffffffff1673ffffffffffffffffffffffffffffffffffffffff168152602001908152602001600020819055508273ffffffffffffffffffffffffffffffffffffffff163373ffffffffffffffffffffffffffffffffffffffff167f8c5be1e5ebec7d5bd14f71427d1e84f3dd0314c0f7b2291e5b200ac8c7c3b925846040516105c39190611894565b60405180910390a36001905092915050565b60035481565b600080600560009054906101000a900473ffffffffffffffffffffffffffffffffffffffff1673ffffffffffffffffffffffffffffffffffffffff1663feaf968c6040518163ffffffff1660e01b815260040160a060405180830381865afa15801561064b573d6000803e3d6000fd5b505050506040513d601f19601f8201168201806040525081019061066f9190611b3d565b5050509150508091505090565b60008073ffffffffffffffffffffffffffffffffffffffff168473ffffffffffffffffffffffffffffffffffffffff16036106ec576040517f08c379a00000000000000000000000000000000000000000000000000000000081526004016106e390611c04565b60405180910390fd5b600073ffffffffffffffffffffffffffffffffffffffff168373ffffffffffffffffffffffffffffffffffffffff160361075b576040517f08c379a000000000000000000000000000000000000000000000000000000000815260040161075290611c70565b60405180910390fd5b81600660008673ffffffffffffffffffffffffffffffffffffffff1673ffffffffffffffffffffffffffffffffffffffff1681526020019081526020016000205410156107dd576040517f08c379a00000000000000000000000000000000000000000000000000000000081526004016107d490611cdc565b60405180910390fd5b81600760008673ffffffffffffffffffffffffffffffffffffffff1673ffffffffffffffffffffffffffffffffffffffff16815260200190815260200160002060003373ffffffffffffffffffffffffffffffffffffffff1673ffffffffffffffffffffffffffffffffffffffff16815260200190815260200160002054101561089c576040517f08c379a000000000000000000000000000000000000000000000000000000000815260040161089390611d48565b60405180910390fd5b81600660008673ffffffffffffffffffffffffffffffffffffffff1673ffffffffffffffffffffffffffffffffffffffff16815260200190815260200160002060008282546108eb9190611d97565b9250508190555081600660008573ffffffffffffffffffffffffffffffffffffffff1673ffffffffffffffffffffffffffffffffffffffff16815260200190815260200160002060008282546109419190611dcb565b9250508190555081600760008673ffffffffffffffffffffffffffffffffffffffff1673ffffffffffffffffffffffffffffffffffffffff16815260200190815260200160002060003373ffffffffffffffffffffffffffffffffffffffff1673ffffffffffffffffffffffffffffffffffffffff16815260200190815260200160002060008282546109d49190611d97565b925050819055508273ffffffffffffffffffffffffffffffffffffffff168473ffffffffffffffffffffffffffffffffffffffff167fddf252ad1be2c89b69c2b068fc378daa952ba7f163c4a11628f55a4df523b3ef84604051610a389190611894565b60405180910390a3600190509392505050565b600081600660003373ffffffffffffffffffffffffffffffffffffffff1673ffffffffffffffffffffffffffffffffffffffff168152602001908152602001600020541015610acf576040517f08c379a0000000000000000000000000000000000000000000000000000000008152600401610ac690611cdc565b60405180910390fd5b81600660003373ffffffffffffffffffffffffffffffffffffffff1673ffffffffffffffffffffffffffffffffffffffff1681526020019081526020016000206000828254610b1e9190611d97565b925050819055508160036000828254610b379190611d97565b925050819055503373ffffffffffffffffffffffffffffffffffffffff166108fc839081150290604051600060405180830381858888f19350505050158015610b84573d6000803e3d6000fd5b50600073ffffffffffffffffffffffffffffffffffffffff163373ffffffffffffffffffffffffffffffffffffffff167fddf252ad1be2c89b69c2b068fc378daa952ba7f163c4a11628f55a4df523b3ef84604051610be39190611894565b60405180910390a360019050919050565b600260009054906101000a900460ff1681565b60066020528060005260406000206000915090505481565b600460009054906101000a900473ffffffffffffffffffffffffffffffffffffffff1673ffffffffffffffffffffffffffffffffffffffff163373ffffffffffffffffffffffffffffffffffffffff1614610caf576040517f08c379a0000000000000000000000000000000000000000000000000000000008152600401610ca690611e4b565b60405180910390fd5b6000600460009054906101000a900473ffffffffffffffffffffffffffffffffffffffff1690506000600460006101000a81548173ffffffffffffffffffffffffffffffffffffffff021916908373ffffffffffffffffffffffffffffffffffffffff160217905550600073ffffffffffffffffffffffffffffffffffffffff168173ffffffffffffffffffffffffffffffffffffffff167f8be0079c531659141344cd1fd0a4f28419497f9722a3daafe3b4186f6b6457e060405160405180910390a350565b600460009054906101000a900473ffffffffffffffffffffffffffffffffffffffff1681565b600080600080600080600560009054906101000a900473ffffffffffffffffffffffffffffffffffffffff1673ffffffffffffffffffffffffffffffffffffffff1663feaf968c6040518163ffffffff1660e01b815260040160a060405180830381865afa158015610e12573d6000803e3d6000fd5b505050506040513d601f19601f82011682018060405250810190610e369190611b3d565b94509450509350935060008313610e82576040517f08c379a0000000000000000000000000000000000000000000000000000000008152600401610e7990611edd565b60405180910390fd5b60008203610ec5576040517f08c379a0000000000000000000000000000000000000000000000000000000008152600401610ebc90611f49565b60405180910390fd5b610f3c42610ed39190611d97565b821015610f15576040517f08c379a0000000000000000000000000000000000000000000000000000000008152600401610f0c90611fb5565b60405180910390fd5b8369ffffffffffffffffffff168169ffffffffffffffffffff161015610f70576040517f08c379a0000000000000000000000000000000000000000000000000000000008152600401610f6790612021565b60405180910390fd5b82600560009054906101000a900473ffffffffffffffffffffffffffffffffffffffff1673ffffffffffffffffffffffffffffffffffffffff1663313ce5676040518163ffffffff1660e01b8152600401602060405180830381865afa158015610fde573d6000803e3d6000fd5b505050506040513d601f19601f82011682018060405250810190611002919061206d565b95509550505050509091565b6001805461101b90611a89565b80601f016020809104026020016040519081016040528092919081815260200182805461104790611a89565b80156110945780601f1061106957610100808354040283529160200191611094565b820191906000526020600020905b81548152906001019060200180831161107757829003601f168201915b505050505081565b610f3c81565b60008073ffffffffffffffffffffffffffffffffffffffff168373ffffffffffffffffffffffffffffffffffffffff1603611112576040517f08c379a000000000000000000000000000000000000000000000000000000000815260040161110990611c70565b60405180910390fd5b81600660003373ffffffffffffffffffffffffffffffffffffffff1673ffffffffffffffffffffffffffffffffffffffff168152602001908152602001600020541015611194576040517f08c379a000000000000000000000000000000000000000000000000000000000815260040161118b90611cdc565b60405180910390fd5b81600660003373ffffffffffffffffffffffffffffffffffffffff1673ffffffffffffffffffffffffffffffffffffffff16815260200190815260200160002060008282546111e39190611d97565b9250508190555081600660008573ffffffffffffffffffffffffffffffffffffffff1673ffffffffffffffffffffffffffffffffffffffff16815260200190815260200160002060008282546112399190611dcb565b925050819055508273ffffffffffffffffffffffffffffffffffffffff163373ffffffffffffffffffffffffffffffffffffffff167fddf252ad1be2c89b69c2b068fc378daa952ba7f163c4a11628f55a4df523b3ef8460405161129d9190611894565b60405180910390a36001905092915050565b60008034116112f3576040517f08c379a00000000000000000000000000000000000000000000000000000000081526004016112ea906120e6565b60405180910390fd5b34600660003373ffffffffffffffffffffffffffffffffffffffff1673ffffffffffffffffffffffffffffffffffffffff16815260200190815260200160002060008282546113429190611dcb565b92505081905550346003600082825461135b9190611dcb565b925050819055503373ffffffffffffffffffffffffffffffffffffffff16600073ffffffffffffffffffffffffffffffffffffffff167fddf252ad1be2c89b69c2b068fc378daa952ba7f163c4a11628f55a4df523b3ef346040516113c09190611894565b60405180910390a36001905090565b600460009054906101000a900473ffffffffffffffffffffffffffffffffffffffff1673ffffffffffffffffffffffffffffffffffffffff163373ffffffffffffffffffffffffffffffffffffffff161461145f576040517f08c379a000000000000000000000000000000000000000000000000000000000815260040161145690611e4b565b60405180910390fd5b600047905060008111156114d757600460009054906101000a900473ffffffffffffffffffffffffffffffffffffffff1673ffffffffffffffffffffffffffffffffffffffff166108fc829081150290604051600060405180830381858888f193505050501580156114d5573d6000803e3d6000fd5b505b50565b6007602052816000526040600020602052806000526040600020600091509150505481565b600460009054906101000a900473ffffffffffffffffffffffffffffffffffffffff1673ffffffffffffffffffffffffffffffffffffffff163373ffffffffffffffffffffffffffffffffffffffff161461158f576040517f08c379a000000000000000000000000000000000000000000000000000000000815260040161158690611e4b565b60405180910390fd5b600073ffffffffffffffffffffffffffffffffffffffff168173ffffffffffffffffffffffffffffffffffffffff16036115fe576040517f08c379a00000000000000000000000000000000000000000000000000000000081526004016115f590612152565b60405180910390fd5b6000600460009054906101000a900473ffffffffffffffffffffffffffffffffffffffff16905081600460006101000a81548173ffffffffffffffffffffffffffffffffffffffff021916908373ffffffffffffffffffffffffffffffffffffffff1602179055508173ffffffffffffffffffffffffffffffffffffffff168173ffffffffffffffffffffffffffffffffffffffff167f8be0079c531659141344cd1fd0a4f28419497f9722a3daafe3b4186f6b6457e060405160405180910390a35050565b600081519050919050565b600082825260208201905092915050565b60005b838110156116fe5780820151818401526020810190506116e3565b60008484015250505050565b6000601f19601f8301169050919050565b6000611726826116c4565b61173081856116cf565b93506117408185602086016116e0565b6117498161170a565b840191505092915050565b6000602082019050818103600083015261176e818461171b565b905092915050565b600080fd5b600073ffffffffffffffffffffffffffffffffffffffff82169050919050565b60006117a68261177b565b9050919050565b6117b68161179b565b81146117c157600080fd5b50565b6000813590506117d3816117ad565b92915050565b6000819050919050565b6117ec816117d9565b81146117f757600080fd5b50565b600081359050611809816117e3565b92915050565b6000806040838503121561182657611825611776565b5b6000611834858286016117c4565b9250506020611845858286016117fa565b9150509250929050565b60008115159050919050565b6118648161184f565b82525050565b600060208201905061187f600083018461185b565b92915050565b61188e816117d9565b82525050565b60006020820190506118a96000830184611885565b92915050565b6000819050919050565b6118c2816118af565b82525050565b60006020820190506118dd60008301846118b9565b92915050565b6000806000606084860312156118fc576118fb611776565b5b600061190a868287016117c4565b935050602061191b868287016117c4565b925050604061192c868287016117fa565b9150509250925092565b60006020828403121561194c5761194b611776565b5b600061195a848285016117fa565b91505092915050565b600060ff82169050919050565b61197981611963565b82525050565b60006020820190506119946000830184611970565b92915050565b6000602082840312156119b0576119af611776565b5b60006119be848285016117c4565b91505092915050565b6119d08161179b565b82525050565b60006020820190506119eb60008301846119c7565b92915050565b6000604082019050611a0660008301856118b9565b611a136020830184611970565b9392505050565b60008060408385031215611a3157611a30611776565b5b6000611a3f858286016117c4565b9250506020611a50858286016117c4565b9150509250929050565b7f4e487b7100000000000000000000000000000000000000000000000000000000600052602260045260246000fd5b60006002820490506001821680611aa157607f821691505b602082108103611ab457611ab3611a5a565b5b50919050565b600069ffffffffffffffffffff82169050919050565b611ad981611aba565b8114611ae457600080fd5b50565b600081519050611af681611ad0565b92915050565b611b05816118af565b8114611b1057600080fd5b50565b600081519050611b2281611afc565b92915050565b600081519050611b37816117e3565b92915050565b600080600080600060a08688031215611b5957611b58611776565b5b6000611b6788828901611ae7565b9550506020611b7888828901611b13565b9450506040611b8988828901611b28565b9350506060611b9a88828901611b28565b9250506080611bab88828901611ae7565b9150509295509295909350565b7f496e76616c69642073656e646572000000000000000000000000000000000000600082015250565b6000611bee600e836116cf565b9150611bf982611bb8565b602082019050919050565b60006020820190508181036000830152611c1d81611be1565b9050919050565b7f496e76616c696420726563697069656e74000000000000000000000000000000600082015250565b6000611c5a6011836116cf565b9150611c6582611c24565b602082019050919050565b60006020820190508181036000830152611c8981611c4d565b9050919050565b7f496e73756666696369656e742062616c616e6365000000000000000000000000600082015250565b6000611cc66014836116cf565b9150611cd182611c90565b602082019050919050565b60006020820190508181036000830152611cf581611cb9565b9050919050565b7f496e73756666696369656e7420616c6c6f77616e636500000000000000000000600082015250565b6000611d326016836116cf565b9150611d3d82611cfc565b602082019050919050565b60006020820190508181036000830152611d6181611d25565b9050919050565b7f4e487b7100000000000000000000000000000000000000000000000000000000600052601160045260246000fd5b6000611da2826117d9565b9150611dad836117d9565b9250828203905081811115611dc557611dc4611d68565b5b92915050565b6000611dd6826117d9565b9150611de1836117d9565b9250828201905080821115611df957611df8611d68565b5b92915050565b7f43616c6c6572206973206e6f7420746865206f776e6572000000000000000000600082015250565b6000611e356017836116cf565b9150611e4082611dff565b602082019050919050565b60006020820190508181036000830152611e6481611e28565b9050919050565b7f507269636520666565642072657475726e6564206e6f6e2d706f73697469766560008201527f2076616c75650000000000000000000000000000000000000000000000000000602082015250565b6000611ec76026836116cf565b9150611ed282611e6b565b604082019050919050565b60006020820190508181036000830152611ef681611eba565b9050919050565b7f526f756e6420696e636f6d706c657465202f206e6f7420757064617465640000600082015250565b6000611f33601e836116cf565b9150611f3e82611efd565b602082019050919050565b60006020820190508181036000830152611f6281611f26565b9050919050565b7f5072696365206973207374616c65000000000000000000000000000000000000600082015250565b6000611f9f600e836116cf565b9150611faa82611f69565b602082019050919050565b60006020820190508181036000830152611fce81611f92565b9050919050565b7f416e737765722069732066726f6d207374616c6520726f756e64000000000000600082015250565b600061200b601a836116cf565b915061201682611fd5565b602082019050919050565b6000602082019050818103600083015261203a81611ffe565b9050919050565b61204a81611963565b811461205557600080fd5b50565b60008151905061206781612041565b92915050565b60006020828403121561208357612082611776565b5b600061209184828501612058565b91505092915050565b7f4d7573742073656e642054525800000000000000000000000000000000000000600082015250565b60006120d0600d836116cf565b91506120db8261209a565b602082019050919050565b600060208201905081810360008301526120ff816120c3565b9050919050565b7f4e6577206f776e65722063616e6e6f74206265207a65726f2061646472657373600082015250565b600061213c6020836116cf565b915061214782612106565b602082019050919050565b6000602082019050818103600083015261216b8161212f565b905091905056fea26469706673582212209b8412b6c3b8af27e4e20ceac59af5bc9b6bb2e3f27e2e2c597a96773a960f6764736f6c63430008140033",
  "linkReferences": {},
  "deployedLinkReferences": {}
}